:020000020000FC
:020000004FC0EF
:020040005DC0A1
:0200340092C078
:1000A00000EF04B90FE005B90FEF0AB907B900E096
:1000B00004BD01E000936E0005E005BD00E0009383
:1000C000800005E00093810001E000936F0002ECE6
:1000D0000093850006EF009384007894189B05C078
:1000E000199B06C01A9B07C0F9CF15E02D9AF6CFD1
:1000F00011272D98F3CF44245524F0CF409A419AEC
:10010000429A439A449A739405E0701661F001E0B4
:10011000701679F002E0701689F003E0701699F01D
:1001200004E07016A9F077240091D40339D04098E8
:1001300018950091D30334D0419818950091D203BB
:100140002FD0429818950091D1032AD04398189542
:100150000091D00325D04498189502EC00938500B7
:1001600006EF0093840005E0101709F00CC04394DB
:100170000CE3401609F007C0539444240AE05016DB
:1001800009F001C05524442D1BD01092D4032092B5
:10019000D303452D15D01092D2032092D103189588
:1001A000F1E0E0EBE00F08F4F39504900BB808954C
:1001B0004079243019120278001808034621060EEF
:1001C0003324222411244456604010F03394FBCF92
:1001D0004C594A5010F02394FCCF465F142ED0E3C4
:0601E00044276627089584
:00000001FF
