S01200006578656D706C6F5F41442E7372656334
S11300000C9434000C9449000C9449000C9449005D
S11300100C9449000C9449000C9449000C94490038
S11300200C9449000C9449000C9449000C94490028
S11300300C9449000C9449000C9449000C94490018
S11300400C9449000C9449000C9449000C94490008
S11300500C9449000C9449000C9449000C944900F8
S11300600C9449000C94490011241FBECFEFD8E032
S1130070DEBFCDBF11E0A0E0B1E0E4E0F4E002C0F7
S113008005900D92A431B107D9F70E9445010C9453
S113009000020C940000611102C0289801C0289A43
S11300A09BB19F70282F207F922B9BB945E04A95E6
S11300B0F1F70000299A95E09A95F1F70000299844
S11300C040EF4A95F1F72BB1922F9F7040E1849F46
S11300D090011124292B2BB995E09A95F1F7000092
S11300E0299A45E04A95F1F70000299890EF9A95EE
S11300F0F1F7611108C0843030F48FE39FE1019778
S1130100F1F700C000000895289829982FEF89EF8F
S113011090E0215080409040E1F700C000008BB196
S11301208F7080638BB925E02A95F1F70000299A36
S113013085E08A95F1F70000299890EF9A95F1F7F8
S11301408FE19EE40197F1F700C0000095E09A95D5
S1130150F1F70000299A25E02A95F1F70000299883
S113016080EF8A95F1F78FE193E00197F1F700C0F2
S1130170000095E09A95F1F70000299A25E02A9568
S1130180F1F70000299880EF8A95F1F78BB18F7011
S113019080628BB995E09A95F1F70000299A25E0E1
S11301A02A95F1F70000299880EF8A95F1F760E02D
S11301B088E20E944B0060E088E00E944B0060E00F
S11301C081E00E944B0060E08CE00E944B0060E004
S11301D080E80E944B000895CF93DF93EC0188815F
S11301E0882339F0219661E00E944B0089918111A6
S11301F0FACFDF91CF910895AC01FB01DB019B01A4
S11302002B5F3F4F80E38D93A217B307E1F79A0169
S1130210ADECBCEC0E94CF01969587959695879599
S1130220969587959C01220F331F880F991F880F7D
S1130230991F880F991F820F931F9A01281B390B4E
S1130240C901805D81939A010E94CF01AC0156954A
S11302504795569547955695479541155105B9F6D5
S1130260089585E480937C0087E880937A0008955C
S1130270EAE7F0E0808180648083808186FDFDCFA1
S113028080917800909179000895CF93DF9300D006
S113029000D01F92CDB7DEB78FEF8AB984B90E9420
S11302A084000E94310160E080E80E944B0080E0FD
S11302B091E00E94EC000F2ECC24CA94F3E0DF2ED0
S11302C0E12CF12CF02D0E9438018C01BE016F5FEE
S11302D07F4F0E94FC0060E08CEC0E944B0061E0C8
S11302E08C810E944B0061E08B810E944B0061E095
S11302F08A810E944B0061E089810E944B00980131
S1130300A8E8B3E10E94CF01A70196010E94B001C1
S1130310BE016F5F7F4FC9010E94FC0060E080EC6A
S11303200E944B0061E08C810E944B0061E08B8154
S11303300E944B0061E08A810E944B0061E0898148
S11303400E944B008FE091E00E94EC002FEF81EEC1
S113035094E0215080409040E1F700C00000B3CF0A
S1130360052E97FB1EF400940E94C70157FD07D089
S11303700E94DE0107FC03D04EF40C94C701509593
S11303804095309521953F4F4F4F5F4F089590957D
S11303908095709561957F4F8F4F9F4F0895A29FD1
S11303A0B001B39FC001A39F700D811D1124911D45
S11303B0B29F700D811D1124911D0895A1E21A2E82
S11303C0AA1BBB1BFD010DC0AA1FBB1FEE1FFF1FF5
S11303D0A217B307E407F50720F0A21BB30BE40B45
S11303E0F50B661F771F881F991F1A9469F760958C
S11303F07095809590959B01AC01BD01CF01089546
S1070400F894FFCF9A
S11304044946535020434154414E445556410020DB
S10704146D5600001D
S9030000FC
