:020000020000FC
:020000006DC1D0
:0200380063C1A2
:02003C0067C19A
:1000A000F2E5E0E0D0E0DA95F1F7EA95E1F7FA95CC
:1000B000D1F79A95A9F70895E6E1D0E0DA95F1F73E
:1000C000EA95E1F79A95C1F7089500000000000055
:1000D0000000000000000000000000000000000020
:1000E0000000000000000000000008950FEF0AB9B2
:1000F000E0E0F0E0F82F8A3028F0FA40E395FA309B
:1001000008F0FBCFD0E0DE2FD295DF2BDBB90895CE
:100110000FEF0AB9EFEFEBB90895F999FECF71BD72
:1001200060BDFA9AF99A0895F999FECF71BDF89ACF
:1001300060B50895E0E0E093C500E7E6E093C40011
:10014000E8E1E093C1000895E091C000E5FFFCCF35
:100150005093C6000895E091C000E7FFFCCFF090F7
:10016000C6000895E0E2E0937C00E7ECE0937A00BB
:10017000E0917A00E6FDFCCFE09079000895229AA4
:10018000E1EAE0938000E0E0E0938B00E42FE0936D
:100190008A00E3E0E09381000895E3E0E0938100CA
:1001A000E1E0E0936F0078940895E0E0E09381004F
:1001B000E0E0E0936F00E0E0E0938500E0938400EE
:1001C000E0E0DE2E0895529A539A549A559A569A20
:1001D000579A5A985B985F985E985D985C989FE0F4
:1001E0006BDF5F985E985D9A5C9A4DD095E064DF16
:1001F0005F985E985D9A5C9A46D095E05DDF5F9867
:100200005E985D9A5C9A3FD095E056DF5F985E9865
:100210005D9A5C9838D091E04FDF38E211D03CE035
:100220000FD031E00DD092E047DF36E009D05A9A86
:1002300008955A9831E004D092E03EDF5A9A08952A
:1002400037FD5F9A37FF5F9836FD5E9A36FF5E98FE
:1002500035FD5D9A35FF5D9834FD5C9A34FF5C98FE
:1002600012D033FD5F9A33FF5F9832FD5E9A32FF02
:100270005E9831FD5D9A31FF5D9830FD5C9A30FFEC
:100280005C9801D008955B9820DF5B9A1EDF5B9835
:10029000E2E31BDFEA95E030E1F708955A98E0E8E1
:1002A0001E0F312FCDDF5A9A08955A98E0EC1E0F99
:1002B000312FC6DF5A9A0895F0E0E0E0E22F2A30AD
:1002C00028F0EA40F395EA3008F0FBCFD0E3ED0FD9
:1002D000FD0F3F2FB5DF3E2FB3DF0895559A569A95
:1002E000209A219A229A03EA04BD06E000936E0048
:1002F00005E005BD0EE107BD0EE108BD7894FFCF16
:10030000289902C0289A189528981895299902C00A
:08031000299A18952998189507
:00000001FF
