S01600006578656D706C6F5F41445F70776D2E737265637D
S11300000C9434000C9449000C9449000C9449005D
S11300100C9449000C9449000C9449000C94490038
S11300200C9449000C9449000C9449000C94490028
S11300300C9449000C9449000C9449000C94490018
S11300400C9449000C9449000C9449000C94490008
S11300500C9449000C9449000C9449000C944900F8
S11300600C9449000C94490011241FBECFEFD8E032
S1130070DEBFCDBF11E0A0E0B1E0E0EDF3E002C0EF
S113008005900D92A031B107D9F70E945C010C9440
S1130090E6010C940000611102C0289801C0289A5E
S11300A09BB19F70282F207F922B9BB945E04A95E6
S11300B0F1F70000299A95E09A95F1F70000299844
S11300C040EF4A95F1F72BB1922F9F7040E1849F46
S11300D090011124292B2BB995E09A95F1F7000092
S11300E0299A45E04A95F1F70000299890EF9A95EE
S11300F0F1F7611108C0843030F48FE39FE1019778
S1130100F1F700C000000895289829982FEF89EF8F
S113011090E0215080409040E1F700C000008BB196
S11301208F7080638BB925E02A95F1F70000299A36
S113013085E08A95F1F70000299890EF9A95F1F7F8
S11301408FE19EE40197F1F700C0000095E09A95D5
S1130150F1F70000299A25E02A95F1F70000299883
S113016080EF8A95F1F78FE193E00197F1F700C0F2
S1130170000095E09A95F1F70000299A25E02A9568
S1130180F1F70000299880EF8A95F1F78BB18F7011
S113019080628BB995E09A95F1F70000299A25E0E1
S11301A02A95F1F70000299880EF8A95F1F760E02D
S11301B088E20E944B0060E088E00E944B0060E00F
S11301C081E00E944B0060E08CE00E944B0060E004
S11301D080E80E944B000895CF93DF93EC0188815F
S11301E0882339F0219661E00E944B0089918111A6
S11301F0FACFDF91CF910895AC01FB01DB019B01A4
S11302002B5F3F4F80E38D93A217B307E1F79A0169
S1130210ADECBCEC0E94D701969587959695879591
S1130220969587959C01220F331F880F991F880F7D
S1130230991F880F991F820F931F9A01281B390B4E
S1130240C901805D81939A010E94D701AC01569542
S11302504795569547955695479541155105B9F6D5
S1130260089585E480937C0087E880937A0008955C
S1130270EAE7F0E0808180648083808186FDFDCFA1
S1130280809178009091790008959C018FEF93E01C
S11302909093870080938600E0E8F0E0908190627C
S11302A0908382E1809381001092820030938B00CE
S11302B020938A0078940895CF93DF9300D000D0E0
S11302C01F92CDB7DEB78FE384B915B880E28AB93F
S11302D01092C10017B887E690E00E94C2010E9404
S11302E084000E94310180E090E00E94450160E0BA
S11302F080E80E944B0080E091E00E94EC000F2E09
S1130300FAE8EF2EF12CF02D0E9438018C01BE0189
S11303106F5F7F4F0E94FC0060E08CEC0E944B00FA
S113032061E08C810E944B0061E08B810E944B0054
S113033061E08A810E944B0061E089810E944B0048
S1130340F70111830083BE016F5F7F4FC8010E94D4
S1130350FC008C810E94CF018B810E94CF018A8195
S11303600E94CF0189810E94CF018AE00E94CF01BF
S1130370FFEF21EE84E0F15020408040E1F700C01F
S11303800000C2CF9093C5008093C4001092C000B7
S113039088E18093C10086E08093C2000895E0EC78
S11303A0F0E0908195FFFDCF8093C6000895A29F51
S11303B0B001B39FC001A39F700D811D1124911D35
S11303C0B29F700D811D1124911D0895F894FFCFE3
S11303D04946535020434154414E44555641000030
S9030000FC
