:020000020000FC
:10000000B7C1F2E5E0E0D0E0DA95F1F7EA95E1F783
:10001000FA95D1F79A95A9F70895E6E1D0E0DA9537
:10002000F1F7EA95E1F79A95C1F70895000000000D
:1000300000000000000000000000000000000000C0
:1000400000000000000000000000000008950FEF15
:100050000AB9E0E0F0E0F82F8A3028F0FA40E395A2
:10006000FA3008F0FBCFD0E0DE2FD295DF2BDBB9E2
:1000700008950FEF0AB9EFEFEBB90895F999FECFA4
:1000800071BD60BDFA9AF99A0895F999FECF71BDD4
:10009000F89A60B50895E0E0E093C500E7E6E093E4
:1000A000C400E8E1E093C1000895E091C000E5FFDD
:1000B000FCCF5093C6000895E091C000E7FFFCCF4D
:1000C000F090C6000895E0E2E0937C00E7ECE09356
:1000D0007A00E0917A00E6FDFCCFE0907900089587
:1000E000229AE1EAE0938000E0E0E0938B00E42FC5
:1000F000E0938A00E3E0E09381000895E3E0E09379
:100100008100E1E0E0936F0078940895E0E0E093EF
:100110008100E0E0E0936F00E0E0E0938500E09391
:100120008400E0E0DE2E0895529A539A549A559A2C
:10013000569A579A5A985B985F985E985D985C9823
:100140009FE06BDF5F985E985D9A5C9A4DD095E07A
:1001500064DF5F985E985D9A5C9A46D095E05DDFBB
:100160005F985E985D9A5C9A3FD095E056DF5F9805
:100170005E985D9A5C9838D091E04FDF38E211D0FC
:100180003CE00FD031E00DD092E047DF36E009D0FF
:100190005A9A08955A9831E004D092E03EDF5A9A74
:1001A000089537FD5F9A37FF5F9836FD5E9A36FFF8
:1001B0005E9835FD5D9A35FF5D9834FD5C9A34FF9D
:1001C0005C9812D033FD5F9A33FF5F9832FD5E9AE0
:1001D00032FF5E9831FD5D9A31FF5D9830FD5C9A8B
:1001E00030FF5C9801D008955B9820DF5B9A1EDF9A
:1001F0005B98A2E31BDFAA95A030E1F708955A9817
:10020000E0E81E0F312FCDDF5A9A08955A98E0EC9E
:100210001E0F312FC6DF5A9A0895F0E0E0E0E22F7A
:100220002A3028F0EA40F395EA3008F0FBCFD0E31B
:10023000ED0FFD0F3F2FB5DF3E2FB3DF0895E22F07
:10024000D0E3ED0F3E2FADDF0895A4DF10E0D7DF40
:1002500034E5A7DF35E4A5DF3DE4A3DF30E5A1DF2A
:100260003FE49FDF30E29DDF3CE49BDF31E499DF38
:1002700036E597DF31E495DF32E593DF30E291DF59
:1002800031E38FDF089510E0BADF35E48ADF3EE620
:1002900088DF33E686DF38E684DF35E682DF3EE658
:1002A00080DF34E67EDF3FE67CDF089510E0A7DFE5
:1002B00031E477DF37E675DF39E673DF34E771DF86
:1002C00031E66FDF3EE66DDF34E66BDF3FE6089533
:1002D00061DF10E094DF35E464DF3DE462DF30E2AB
:1002E00060DF3FE45EDF30E55CDF35E45ADF32E5B6
:1002F00058DF31E456DF33E454DF31E452DF3FE4CA
:1003000032E44FDF35E44DDF3DE44BDF30E249DFDF
:1003100036E547DF39E445DF3EE443DF34E441DFDF
:100320003FE43FDF089539E43CDF36E43ADF33E56C
:1003300038DF30E536DF30E434DF089511E05FDF89
:1003400033E42FDF38E62DDF31E62BDF36E729DF18
:1003500035E627DF33E725DF089510E057DF27E193
:100360005CDF25E15ADF1CE051DF22E068DF089501
:1003700000E004B90FE305B90FE107B903E000930A
:10038000000104E00093000103E00093020105E096
:100390000093030103E000930401C6DEFBDE13E0DB
:1003A0002EDFAEDF1899FECFF5DE10E028DF6BDF21
:1003B000439A1D99FDCF4398EDDE10E020DF76DFF4
:1003C000419A00910001902F1CDE4198E3DE0091DC
:1003D0000201902F16DE429A1C99FDCF4298E2CF7F
:1003E000FFCF202F0E940D01D5DE2FDF10E00EDFA2
:1003F00034E5D7DE3DE3D5DE00910001202F0E94D9
:100400000D0105E0902FFDDDC5DE1FDFC3DE3BDF04
:00000001FF
